{"abi":[{"type":"constructor","inputs":[{"name":"_name","type":"string","internalType":"string"},{"name":"_symbol","type":"string","internalType":"string"},{"name":"initialSupply","type":"uint256","internalType":"uint256"},{"name":"_owner","type":"address","internalType":"address"}],"stateMutability":"nonpayable"},{"type":"function","name":"allowance","inputs":[{"name":"_owner","type":"address","internalType":"address"},{"name":"spender","type":"address","internalType":"address"}],"outputs":[{"name":"remaining","type":"uint256","internalType":"uint256"}],"stateMutability":"view"},{"type":"function","name":"approve","inputs":[{"name":"spender","type":"address","internalType":"address"},{"name":"amount","type":"uint256","internalType":"uint256"}],"outputs":[{"name":"success","type":"bool","internalType":"bool"}],"stateMutability":"nonpayable"},{"type":"function","name":"balanceOf","inputs":[{"name":"account","type":"address","internalType":"address"}],"outputs":[{"name":"","type":"uint256","internalType":"uint256"}],"stateMutability":"view"},{"type":"function","name":"burn","inputs":[{"name":"from","type":"address","internalType":"address"},{"name":"amount","type":"uint256","internalType":"uint256"}],"outputs":[],"stateMutability":"nonpayable"},{"type":"function","name":"decimals","inputs":[],"outputs":[{"name":"","type":"uint8","internalType":"uint8"}],"stateMutability":"pure"},{"type":"function","name":"mint","inputs":[{"name":"amount","type":"uint256","internalType":"uint256"},{"name":"to","type":"address","internalType":"address"}],"outputs":[],"stateMutability":"nonpayable"},{"type":"function","name":"name","inputs":[],"outputs":[{"name":"","type":"string","internalType":"string"}],"stateMutability":"view"},{"type":"function","name":"symbol","inputs":[],"outputs":[{"name":"","type":"string","internalType":"string"}],"stateMutability":"view"},{"type":"function","name":"totalSupply","inputs":[],"outputs":[{"name":"","type":"uint256","internalType":"uint256"}],"stateMutability":"view"},{"type":"function","name":"transfer","inputs":[{"name":"to","type":"address","internalType":"address"},{"name":"amount","type":"uint256","internalType":"uint256"}],"outputs":[{"name":"success","type":"bool","internalType":"bool"}],"stateMutability":"nonpayable"},{"type":"function","name":"transferFrom","inputs":[{"name":"from","type":"address","internalType":"address"},{"name":"to","type":"address","internalType":"address"},{"name":"amount","type":"uint256","internalType":"uint256"}],"outputs":[{"name":"success","type":"bool","internalType":"bool"}],"stateMutability":"nonpayable"},{"type":"event","name":"Approval","inputs":[{"name":"owner","type":"address","indexed":true,"internalType":"address"},{"name":"spender","type":"address","indexed":true,"internalType":"address"},{"name":"amount","type":"uint256","indexed":false,"internalType":"uint256"}],"anonymous":false},{"type":"event","name":"Transfer","inputs":[{"name":"from","type":"address","indexed":true,"internalType":"address"},{"name":"to","type":"address","indexed":true,"internalType":"address"},{"name":"amount","type":"uint256","indexed":false,"internalType":"uint256"}],"anonymous":false}],"bytecode":{"object":"0x608060405234801561001057600080fd5b50604051611b31380380611b318339818101604052810190610032919061043b565b836002908161004191906106f1565b50826003908161005191906106f1565b50806000806101000a81548173ffffffffffffffffffffffffffffffffffffffff021916908373ffffffffffffffffffffffffffffffffffffffff1602179055506100c28260008054906101000a900473ffffffffffffffffffffffffffffffffffffffff166100cb60201b60201c565b505050506108cd565b60008054906101000a900473ffffffffffffffffffffffffffffffffffffffff1673ffffffffffffffffffffffffffffffffffffffff163373ffffffffffffffffffffffffffffffffffffffff1614610159576040517f08c379a000000000000000000000000000000000000000000000000000000000815260040161015090610820565b60405180910390fd5b81600460008373ffffffffffffffffffffffffffffffffffffffff1673ffffffffffffffffffffffffffffffffffffffff16815260200190815260200160002060008282546101a8919061086f565b9250508190555081600160008282546101c1919061086f565b925050819055508073ffffffffffffffffffffffffffffffffffffffff16600073ffffffffffffffffffffffffffffffffffffffff167fddf252ad1be2c89b69c2b068fc378daa952ba7f163c4a11628f55a4df523b3ef8460405161022691906108b2565b60405180910390a35050565b6000604051905090565b600080fd5b600080fd5b600080fd5b600080fd5b6000601f19601f8301169050919050565b7f4e487b7100000000000000000000000000000000000000000000000000000000600052604160045260246000fd5b61029982610250565b810181811067ffffffffffffffff821117156102b8576102b7610261565b5b80604052505050565b60006102cb610232565b90506102d78282610290565b919050565b600067ffffffffffffffff8211156102f7576102f6610261565b5b61030082610250565b9050602081019050919050565b60005b8381101561032b578082015181840152602081019050610310565b60008484015250505050565b600061034a610345846102dc565b6102c1565b9050828152602081018484840111156103665761036561024b565b5b61037184828561030d565b509392505050565b600082601f83011261038e5761038d610246565b5b815161039e848260208601610337565b91505092915050565b6000819050919050565b6103ba816103a7565b81146103c557600080fd5b50565b6000815190506103d7816103b1565b92915050565b600073ffffffffffffffffffffffffffffffffffffffff82169050919050565b6000610408826103dd565b9050919050565b610418816103fd565b811461042357600080fd5b50565b6000815190506104358161040f565b92915050565b600080600080608085870312156104555761045461023c565b5b600085015167ffffffffffffffff81111561047357610472610241565b5b61047f87828801610379565b945050602085015167ffffffffffffffff8111156104a05761049f610241565b5b6104ac87828801610379565b93505060406104bd878288016103c8565b92505060606104ce87828801610426565b91505092959194509250565b600081519050919050565b7f4e487b7100000000000000000000000000000000000000000000000000000000600052602260045260246000fd5b6000600282049050600182168061052c57607f821691505b60208210810361053f5761053e6104e5565b5b50919050565b60008190508160005260206000209050919050565b60006020601f8301049050919050565b600082821b905092915050565b6000600883026105a77fffffffffffffffffffffffffffffffffffffffffffffffffffffffffffffffff8261056a565b6105b1868361056a565b95508019841693508086168417925050509392505050565b6000819050919050565b60006105ee6105e96105e4846103a7565b6105c9565b6103a7565b9050919050565b6000819050919050565b610608836105d3565b61061c610614826105f5565b848454610577565b825550505050565b600090565b610631610624565b61063c8184846105ff565b505050565b5b8181101561066057610655600082610629565b600181019050610642565b5050565b601f8211156106a55761067681610545565b61067f8461055a565b8101602085101561068e578190505b6106a261069a8561055a565b830182610641565b50505b505050565b600082821c905092915050565b60006106c8600019846008026106aa565b1980831691505092915050565b60006106e183836106b7565b9150826002028217905092915050565b6106fa826104da565b67ffffffffffffffff81111561071357610712610261565b5b61071d8254610514565b610728828285610664565b600060209050601f83116001811461075b5760008415610749578287015190505b61075385826106d5565b8655506107bb565b601f19841661076986610545565b60005b828110156107915784890151825560018201915060208501945060208101905061076c565b868310156107ae57848901516107aa601f8916826106b7565b8355505b6001600288020188555050505b505050505050565b600082825260208201905092915050565b7f6e6f7420616e206f776e65722100000000000000000000000000000000000000600082015250565b600061080a600d836107c3565b9150610815826107d4565b602082019050919050565b60006020820190508181036000830152610839816107fd565b9050919050565b7f4e487b7100000000000000000000000000000000000000000000000000000000600052601160045260246000fd5b600061087a826103a7565b9150610885836103a7565b925082820190508082111561089d5761089c610840565b5b92915050565b6108ac816103a7565b82525050565b60006020820190506108c760008301846108a3565b92915050565b611255806108dc6000396000f3fe608060405234801561001057600080fd5b50600436106100a95760003560e01c806370a082311161007157806370a082311461016857806394bf804d1461019857806395d89b41146101b45780639dc29fac146101d2578063a9059cbb146101ee578063dd62ed3e1461021e576100a9565b806306fdde03146100ae578063095ea7b3146100cc57806318160ddd146100fc57806323b872dd1461011a578063313ce5671461014a575b600080fd5b6100b661024e565b6040516100c39190610ce6565b60405180910390f35b6100e660048036038101906100e19190610da1565b6102dc565b6040516100f39190610dfc565b60405180910390f35b61010461035f565b6040516101119190610e26565b60405180910390f35b610134600480360381019061012f9190610e41565b610365565b6040516101419190610dfc565b60405180910390f35b61015261058d565b60405161015f9190610eb0565b60405180910390f35b610182600480360381019061017d9190610ecb565b610596565b60405161018f9190610e26565b60405180910390f35b6101b260048036038101906101ad9190610ef8565b6105df565b005b6101bc610746565b6040516101c99190610ce6565b60405180910390f35b6101ec60048036038101906101e79190610da1565b6107d4565b005b61020860048036038101906102039190610da1565b6108f1565b6040516102159190610dfc565b60405180910390f35b61023860048036038101906102339190610f38565b6109c6565b6040516102459190610e26565b60405180910390f35b6002805461025b90610fa7565b80601f016020809104026020016040519081016040528092919081815260200182805461028790610fa7565b80156102d45780601f106102a9576101008083540402835291602001916102d4565b820191906000526020600020905b8154815290600101906020018083116102b757829003601f168201915b505050505081565b60008073ffffffffffffffffffffffffffffffffffffffff168373ffffffffffffffffffffffffffffffffffffffff160361034c576040517f08c379a000000000000000000000000000000000000000000000000000000000815260040161034390611024565b60405180910390fd5b610357338484610a4d565b905092915050565b60015481565b600083828061037383610596565b10156103b4576040517f08c379a00000000000000000000000000000000000000000000000000000000081526004016103ab90611090565b60405180910390fd5b83600560008873ffffffffffffffffffffffffffffffffffffffff1673ffffffffffffffffffffffffffffffffffffffff16815260200190815260200160002060008773ffffffffffffffffffffffffffffffffffffffff1673ffffffffffffffffffffffffffffffffffffffff168152602001908152602001600020541015610473576040517f08c379a000000000000000000000000000000000000000000000000000000000815260040161046a906110fc565b60405180910390fd5b600073ffffffffffffffffffffffffffffffffffffffff168673ffffffffffffffffffffffffffffffffffffffff16036104e2576040517f08c379a00000000000000000000000000000000000000000000000000000000081526004016104d990611024565b60405180910390fd5b83600560008873ffffffffffffffffffffffffffffffffffffffff1673ffffffffffffffffffffffffffffffffffffffff16815260200190815260200160002060003373ffffffffffffffffffffffffffffffffffffffff1673ffffffffffffffffffffffffffffffffffffffff168152602001908152602001600020600082825461056e919061114b565b92505081905550610580868686610b40565b6001925050509392505050565b60006012905090565b6000600460008373ffffffffffffffffffffffffffffffffffffffff1673ffffffffffffffffffffffffffffffffffffffff168152602001908152602001600020549050919050565b60008054906101000a900473ffffffffffffffffffffffffffffffffffffffff1673ffffffffffffffffffffffffffffffffffffffff163373ffffffffffffffffffffffffffffffffffffffff161461066d576040517f08c379a0000000000000000000000000000000000000000000000000000000008152600401610664906111cb565b60405180910390fd5b81600460008373ffffffffffffffffffffffffffffffffffffffff1673ffffffffffffffffffffffffffffffffffffffff16815260200190815260200160002060008282546106bc91906111eb565b9250508190555081600160008282546106d591906111eb565b925050819055508073ffffffffffffffffffffffffffffffffffffffff16600073ffffffffffffffffffffffffffffffffffffffff167fddf252ad1be2c89b69c2b068fc378daa952ba7f163c4a11628f55a4df523b3ef8460405161073a9190610e26565b60405180910390a35050565b6003805461075390610fa7565b80601f016020809104026020016040519081016040528092919081815260200182805461077f90610fa7565b80156107cc5780601f106107a1576101008083540402835291602001916107cc565b820191906000526020600020905b8154815290600101906020018083116107af57829003601f168201915b505050505081565b60008054906101000a900473ffffffffffffffffffffffffffffffffffffffff1673ffffffffffffffffffffffffffffffffffffffff163373ffffffffffffffffffffffffffffffffffffffff1614610862576040517f08c379a0000000000000000000000000000000000000000000000000000000008152600401610859906111cb565b60405180910390fd5b8060016000828254610874919061114b565b9250508190555061088782600083610b40565b600073ffffffffffffffffffffffffffffffffffffffff168273ffffffffffffffffffffffffffffffffffffffff167fddf252ad1be2c89b69c2b068fc378daa952ba7f163c4a11628f55a4df523b3ef836040516108e59190610e26565b60405180910390a35050565b60003382806108ff83610596565b1015610940576040517f08c379a000000000000000000000000000000000000000000000000000000000815260040161093790611090565b60405180910390fd5b600073ffffffffffffffffffffffffffffffffffffffff168573ffffffffffffffffffffffffffffffffffffffff16036109af576040517f08c379a00000000000000000000000000000000000000000000000000000000081526004016109a690611024565b60405180910390fd5b6109ba338686610b40565b60019250505092915050565b6000600560008473ffffffffffffffffffffffffffffffffffffffff1673ffffffffffffffffffffffffffffffffffffffff16815260200190815260200160002060008373ffffffffffffffffffffffffffffffffffffffff1673ffffffffffffffffffffffffffffffffffffffff16815260200190815260200160002054905092915050565b600081600560008673ffffffffffffffffffffffffffffffffffffffff1673ffffffffffffffffffffffffffffffffffffffff16815260200190815260200160002060008573ffffffffffffffffffffffffffffffffffffffff1673ffffffffffffffffffffffffffffffffffffffff168152602001908152602001600020819055508273ffffffffffffffffffffffffffffffffffffffff168473ffffffffffffffffffffffffffffffffffffffff167f8c5be1e5ebec7d5bd14f71427d1e84f3dd0314c0f7b2291e5b200ac8c7c3b92584604051610b2d9190610e26565b60405180910390a3600190509392505050565b80600460008573ffffffffffffffffffffffffffffffffffffffff1673ffffffffffffffffffffffffffffffffffffffff1681526020019081526020016000206000828254610b8f919061114b565b9250508190555080600460008473ffffffffffffffffffffffffffffffffffffffff1673ffffffffffffffffffffffffffffffffffffffff1681526020019081526020016000206000828254610be591906111eb565b925050819055508173ffffffffffffffffffffffffffffffffffffffff168373ffffffffffffffffffffffffffffffffffffffff167fddf252ad1be2c89b69c2b068fc378daa952ba7f163c4a11628f55a4df523b3ef83604051610c499190610e26565b60405180910390a3505050565b600081519050919050565b600082825260208201905092915050565b60005b83811015610c90578082015181840152602081019050610c75565b60008484015250505050565b6000601f19601f8301169050919050565b6000610cb882610c56565b610cc28185610c61565b9350610cd2818560208601610c72565b610cdb81610c9c565b840191505092915050565b60006020820190508181036000830152610d008184610cad565b905092915050565b600080fd5b600073ffffffffffffffffffffffffffffffffffffffff82169050919050565b6000610d3882610d0d565b9050919050565b610d4881610d2d565b8114610d5357600080fd5b50565b600081359050610d6581610d3f565b92915050565b6000819050919050565b610d7e81610d6b565b8114610d8957600080fd5b50565b600081359050610d9b81610d75565b92915050565b60008060408385031215610db857610db7610d08565b5b6000610dc685828601610d56565b9250506020610dd785828601610d8c565b9150509250929050565b60008115159050919050565b610df681610de1565b82525050565b6000602082019050610e116000830184610ded565b92915050565b610e2081610d6b565b82525050565b6000602082019050610e3b6000830184610e17565b92915050565b600080600060608486031215610e5a57610e59610d08565b5b6000610e6886828701610d56565b9350506020610e7986828701610d56565b9250506040610e8a86828701610d8c565b9150509250925092565b600060ff82169050919050565b610eaa81610e94565b82525050565b6000602082019050610ec56000830184610ea1565b92915050565b600060208284031215610ee157610ee0610d08565b5b6000610eef84828501610d56565b91505092915050565b60008060408385031215610f0f57610f0e610d08565b5b6000610f1d85828601610d8c565b9250506020610f2e85828601610d56565b9150509250929050565b60008060408385031215610f4f57610f4e610d08565b5b6000610f5d85828601610d56565b9250506020610f6e85828601610d56565b9150509250929050565b7f4e487b7100000000000000000000000000000000000000000000000000000000600052602260045260246000fd5b60006002820490506001821680610fbf57607f821691505b602082108103610fd257610fd1610f78565b5b50919050565b7f7a65726f20616464726573732100000000000000000000000000000000000000600082015250565b600061100e600d83610c61565b915061101982610fd8565b602082019050919050565b6000602082019050818103600083015261103d81611001565b9050919050565b7f6e6f7420656e6f75676820746f6b656e73000000000000000000000000000000600082015250565b600061107a601183610c61565b915061108582611044565b602082019050919050565b600060208201905081810360008301526110a98161106d565b9050919050565b7f636865636b20616c6c6f77616e63652100000000000000000000000000000000600082015250565b60006110e6601083610c61565b91506110f1826110b0565b602082019050919050565b60006020820190508181036000830152611115816110d9565b9050919050565b7f4e487b7100000000000000000000000000000000000000000000000000000000600052601160045260246000fd5b600061115682610d6b565b915061116183610d6b565b92508282039050818111156111795761117861111c565b5b92915050565b7f6e6f7420616e206f776e65722100000000000000000000000000000000000000600082015250565b60006111b5600d83610c61565b91506111c08261117f565b602082019050919050565b600060208201905081810360008301526111e4816111a8565b9050919050565b60006111f682610d6b565b915061120183610d6b565b92508282019050808211156112195761121861111c565b5b9291505056fea2646970667358221220fa85e09a27a0056b7def603cd3e2ed878277a9c98030bdf257cb0677291f630a64736f6c634300081a0033","linkReferences":{}},"methodIdentifiers":{"allowance(address,address)":"dd62ed3e","approve(address,uint256)":"095ea7b3","balanceOf(address)":"70a08231","burn(address,uint256)":"9dc29fac","decimals()":"313ce567","mint(uint256,address)":"94bf804d","name()":"06fdde03","symbol()":"95d89b41","totalSupply()":"18160ddd","transfer(address,uint256)":"a9059cbb","transferFrom(address,address,uint256)":"23b872dd"},"id":27}