{"abi":[{"type":"constructor","inputs":[],"stateMutability":"nonpayable"},{"type":"receive","stateMutability":"payable"},{"type":"function","name":"owner","inputs":[],"outputs":[{"name":"","type":"address","internalType":"address"}],"stateMutability":"view"},{"type":"function","name":"sell","inputs":[{"name":"_amountToSell","type":"uint256","internalType":"uint256"}],"outputs":[],"stateMutability":"nonpayable"},{"type":"function","name":"token","inputs":[],"outputs":[{"name":"","type":"address","internalType":"contract IERC20"}],"stateMutability":"view"},{"type":"function","name":"tokenBalance","inputs":[{"name":"account","type":"address","internalType":"address"}],"outputs":[{"name":"","type":"uint256","internalType":"uint256"}],"stateMutability":"view"},{"type":"function","name":"withdrawAll","inputs":[],"outputs":[],"stateMutability":"nonpayable"},{"type":"event","name":"Bought","inputs":[{"name":"_buyer","type":"address","indexed":true,"internalType":"address"},{"name":"_amount","type":"uint256","indexed":false,"internalType":"uint256"}],"anonymous":false},{"type":"event","name":"Sold","inputs":[{"name":"_seller","type":"address","indexed":true,"internalType":"address"},{"name":"_amount","type":"uint256","indexed":false,"internalType":"uint256"}],"anonymous":false}],"bytecode":{"object":"0x6080604052348015600f57600080fd5b5030604051601b906075565b6001600160a01b039091168152602001604051809103906000f0801580156046573d6000803e3d6000fd5b50600080546001600160a01b03929092166001600160a01b031992831617905560018054909116331790556082565b610ca18061076483390190565b6106d3806100916000396000f3fe60806040526004361061004e5760003560e01c8063853828b6146101fb5780638da5cb5b14610212578063e4849b321461024f578063eedc966a1461026f578063fc0c546a1461029d57600080fd5b366101f657348061009a5760405162461bcd60e51b81526020600482015260116024820152704e6f7420656e6f7567682066756e64732160781b60448201526064015b60405180910390fd5b6000546040516370a0823160e01b815230600482015282916001600160a01b0316906370a0823190602401602060405180830381865afa1580156100e2573d6000803e3d6000fd5b505050506040513d601f19601f820116820180604052508101906101069190610619565b10156101495760405162461bcd60e51b81526020600482015260126024820152714e6f7420656e6f75676820746f6b656e732160701b6044820152606401610091565b60005460405163a9059cbb60e01b8152336004820152602481018390526001600160a01b039091169063a9059cbb906044016020604051808303816000875af115801561019a573d6000803e3d6000fd5b505050506040513d601f19601f820116820180604052508101906101be9190610632565b5060405181815233907fc55650ccda1011e1cdc769b1fbf546ebb8c97800b6072b49e06cd560305b1d679060200160405180910390a2005b600080fd5b34801561020757600080fd5b506102106102bd565b005b34801561021e57600080fd5b50600154610232906001600160a01b031681565b6040516001600160a01b0390911681526020015b60405180910390f35b34801561025b57600080fd5b5061021061026a36600461065b565b6103a7565b34801561027b57600080fd5b5061028f61028a366004610674565b6105a4565b604051908152602001610246565b3480156102a957600080fd5b50600054610232906001600160a01b031681565b6001546001600160a01b031633146103075760405162461bcd60e51b815260206004820152600d60248201526c4e6f7420616e206f776e65722160981b6044820152606401610091565b60015460405147916000916001600160a01b039091169083908381818185875af1925050503d8060008114610358576040519150601f19603f3d011682016040523d82523d6000602084013e61035d565b606091505b50509050806103a35760405162461bcd60e51b81526020600482015260126024820152714661696c656420746f20776974686472617760701b6044820152606401610091565b5050565b60008111801561042157506000546040516370a0823160e01b815233600482015282916001600160a01b0316906370a0823190602401602060405180830381865afa1580156103fa573d6000803e3d6000fd5b505050506040513d601f19601f8201168201806040525081019061041e9190610619565b10155b6104615760405162461bcd60e51b8152602060048201526011602482015270496e636f727265637420616d6f756e742160781b6044820152606401610091565b6000546040516323b872dd60e01b8152336004820152306024820152604481018390526001600160a01b03909116906323b872dd906064016020604051808303816000875af11580156104b8573d6000803e3d6000fd5b505050506040513d601f19601f820116820180604052508101906104dc9190610632565b50604051600090339083908381818185875af1925050503d806000811461051f576040519150601f19603f3d011682016040523d82523d6000602084013e610524565b606091505b505090508061056b5760405162461bcd60e51b81526020600482015260136024820152724661696c656420746f2073656e64204554482160681b6044820152606401610091565b60405182815233907fae92ab4b6f8f401ead768d3273e6bb937a13e39827d19c6376e8fd4512a05d9a9060200160405180910390a25050565b600080546040516370a0823160e01b81526001600160a01b038481166004830152909116906370a0823190602401602060405180830381865afa1580156105ef573d6000803e3d6000fd5b505050506040513d601f19601f820116820180604052508101906106139190610619565b92915050565b60006020828403121561062b57600080fd5b5051919050565b60006020828403121561064457600080fd5b8151801515811461065457600080fd5b9392505050565b60006020828403121561066d57600080fd5b5035919050565b60006020828403121561068657600080fd5b81356001600160a01b038116811461065457600080fdfea2646970667358221220947eadfb0140157559e25253afdf169f815160561905d3ab89aa83684588a9a264736f6c634300081a0033608060405234801561001057600080fd5b50604051610ca1380380610ca183398101604081905261002f9161019e565b6040518060400160405280600b81526020016a21bab9ba37b6aa37b5b2b760a91b815250604051806040016040528060048152602001634353544d60e01b815250620f4240838360029081610084919061026d565b506003610091848261026d565b50600080546001600160a01b0319166001600160a01b0383169081179091556100bb9083906100c5565b5050505050610352565b6000546001600160a01b031633146101135760405162461bcd60e51b815260206004820152600d60248201526c6e6f7420616e206f776e65722160981b604482015260640160405180910390fd5b6001600160a01b0381166000908152600460205260408120805484929061013b90849061032b565b925050819055508160016000828254610154919061032b565b90915550506040518281526001600160a01b038216906000907fddf252ad1be2c89b69c2b068fc378daa952ba7f163c4a11628f55a4df523b3ef9060200160405180910390a35050565b6000602082840312156101b057600080fd5b81516001600160a01b03811681146101c757600080fd5b9392505050565b634e487b7160e01b600052604160045260246000fd5b600181811c908216806101f857607f821691505b60208210810361021857634e487b7160e01b600052602260045260246000fd5b50919050565b601f82111561026857806000526020600020601f840160051c810160208510156102455750805b601f840160051c820191505b818110156102655760008155600101610251565b50505b505050565b81516001600160401b03811115610286576102866101ce565b61029a8161029484546101e4565b8461021e565b6020601f8211600181146102ce57600083156102b65750848201515b600019600385901b1c1916600184901b178455610265565b600084815260208120601f198516915b828110156102fe57878501518255602094850194600190920191016102de565b508482101561031c5786840151600019600387901b60f8161c191681555b50505050600190811b01905550565b8082018082111561034c57634e487b7160e01b600052601160045260246000fd5b92915050565b610940806103616000396000f3fe608060405234801561001057600080fd5b50600436106100a95760003560e01c806370a082311161007157806370a082311461012857806394bf804d1461015157806395d89b41146101665780639dc29fac1461016e578063a9059cbb14610181578063dd62ed3e1461019457600080fd5b806306fdde03146100ae578063095ea7b3146100cc57806318160ddd146100ef57806323b872dd14610106578063313ce56714610119575b600080fd5b6100b66101cd565b6040516100c3919061072b565b60405180910390f35b6100df6100da366004610795565b61025b565b60405190151581526020016100c3565b6100f860015481565b6040519081526020016100c3565b6100df6101143660046107bf565b6102a0565b604051601281526020016100c3565b6100f86101363660046107fc565b6001600160a01b031660009081526004602052604090205490565b61016461015f366004610817565b6103e4565b005b6100b66104ba565b61016461017c366004610795565b6104c7565b6100df61018f366004610795565b610573565b6100f86101a2366004610843565b6001600160a01b03918216600090815260056020908152604080832093909416825291909152205490565b600280546101da9061086d565b80601f01602080910402602001604051908101604052809291908181526020018280546102069061086d565b80156102535780601f1061022857610100808354040283529160200191610253565b820191906000526020600020905b81548152906001019060200180831161023657829003601f168201915b505050505081565b60006001600160a01b03831661028c5760405162461bcd60e51b8152600401610283906108a7565b60405180910390fd5b610297338484610615565b90505b92915050565b60008382806102c4836001600160a01b031660009081526004602052604090205490565b10156103065760405162461bcd60e51b81526020600482015260116024820152706e6f7420656e6f75676820746f6b656e7360781b6044820152606401610283565b6001600160a01b0380871660009081526005602090815260408083209389168352929052205484111561036e5760405162461bcd60e51b815260206004820152601060248201526f636865636b20616c6c6f77616e63652160801b6044820152606401610283565b6001600160a01b0386166103945760405162461bcd60e51b8152600401610283906108a7565b6001600160a01b0386166000908152600560209081526040808320338452909152812080548692906103c79084906108e4565b909155506103d8905086868661067d565b50600195945050505050565b6000546001600160a01b0316331461042e5760405162461bcd60e51b815260206004820152600d60248201526c6e6f7420616e206f776e65722160981b6044820152606401610283565b6001600160a01b038116600090815260046020526040812080548492906104569084906108f7565b92505081905550816001600082825461046f91906108f7565b90915550506040518281526001600160a01b038216906000907fddf252ad1be2c89b69c2b068fc378daa952ba7f163c4a11628f55a4df523b3ef906020015b60405180910390a35050565b600380546101da9061086d565b6000546001600160a01b031633146105115760405162461bcd60e51b815260206004820152600d60248201526c6e6f7420616e206f776e65722160981b6044820152606401610283565b806001600082825461052391906108e4565b9091555061053590508260008361067d565b6040518181526000906001600160a01b038416907fddf252ad1be2c89b69c2b068fc378daa952ba7f163c4a11628f55a4df523b3ef906020016104ae565b6000338280610597836001600160a01b031660009081526004602052604090205490565b10156105d95760405162461bcd60e51b81526020600482015260116024820152706e6f7420656e6f75676820746f6b656e7360781b6044820152606401610283565b6001600160a01b0385166105ff5760405162461bcd60e51b8152600401610283906108a7565b61060a33868661067d565b506001949350505050565b6001600160a01b03838116600081815260056020908152604080832094871680845294825280832086905551858152919392917f8c5be1e5ebec7d5bd14f71427d1e84f3dd0314c0f7b2291e5b200ac8c7c3b925910160405180910390a35060019392505050565b6001600160a01b038316600090815260046020526040812080548392906106a59084906108e4565b90915550506001600160a01b038216600090815260046020526040812080548392906106d29084906108f7565b92505081905550816001600160a01b0316836001600160a01b03167fddf252ad1be2c89b69c2b068fc378daa952ba7f163c4a11628f55a4df523b3ef8360405161071e91815260200190565b60405180910390a3505050565b602081526000825180602084015260005b81811015610759576020818601810151604086840101520161073c565b506000604082850101526040601f19601f83011684010191505092915050565b80356001600160a01b038116811461079057600080fd5b919050565b600080604083850312156107a857600080fd5b6107b183610779565b946020939093013593505050565b6000806000606084860312156107d457600080fd5b6107dd84610779565b92506107eb60208501610779565b929592945050506040919091013590565b60006020828403121561080e57600080fd5b61029782610779565b6000806040838503121561082a57600080fd5b8235915061083a60208401610779565b90509250929050565b6000806040838503121561085657600080fd5b61085f83610779565b915061083a60208401610779565b600181811c9082168061088157607f821691505b6020821081036108a157634e487b7160e01b600052602260045260246000fd5b50919050565b6020808252600d908201526c7a65726f20616464726573732160981b604082015260600190565b634e487b7160e01b600052601160045260246000fd5b8181038181111561029a5761029a6108ce565b8082018082111561029a5761029a6108ce56fea26469706673582212204896518fd44855aae91f700c96467ed4215ae42cac4a73011f26a9df4d61882a64736f6c634300081a0033","linkReferences":{}},"methodIdentifiers":{"owner()":"8da5cb5b","sell(uint256)":"e4849b32","token()":"fc0c546a","tokenBalance(address)":"eedc966a","withdrawAll()":"853828b6"},"id":23}